{
  "_format": "hh-sol-artifact-1",
  "contractName": "VotingSystem",
  "sourceName": "contracts/VotingSystem.sol",
  "abi": [
    {
      "anonymous": false,
      "inputs": [
        {
          "indexed": true,
          "internalType": "uint256",
          "name": "electionId",
          "type": "uint256"
        },
        {
          "indexed": false,
          "internalType": "string",
          "name": "title",
          "type": "string"
        }
      ],
      "name": "ElectionCreated",
      "type": "event"
    },
    {
      "anonymous": false,
      "inputs": [
        {
          "indexed": true,
          "internalType": "uint256",
          "name": "electionId",
          "type": "uint256"
        },
        {
          "indexed": true,
          "internalType": "uint256",
          "name": "partyId",
          "type": "uint256"
        },
        {
          "indexed": false,
          "internalType": "string",
          "name": "name",
          "type": "string"
        },
        {
          "indexed": false,
          "internalType": "string",
          "name": "electionTitle",
          "type": "string"
        }
      ],
      "name": "PartyAdded",
      "type": "event"
    },
    {
      "anonymous": false,
      "inputs": [
        {
          "indexed": true,
          "internalType": "uint256",
          "name": "electionId",
          "type": "uint256"
        },
        {
          "indexed": true,
          "internalType": "uint256",
          "name": "partyId",
          "type": "uint256"
        },
        {
          "indexed": true,
          "internalType": "uint256",
          "name": "voter",
          "type": "uint256"
        },
        {
          "indexed": false,
          "internalType": "string",
          "name": "electionTitle",
          "type": "string"
        },
        {
          "indexed": false,
          "internalType": "string",
          "name": "partyName",
          "type": "string"
        },
        {
          "indexed": false,
          "internalType": "string",
          "name": "characterName",
          "type": "string"
        }
      ],
      "name": "VoteCast",
      "type": "event"
    },
    {
      "inputs": [
        {
          "internalType": "uint256",
          "name": "partyId",
          "type": "uint256"
        },
        {
          "internalType": "string",
          "name": "name",
          "type": "string"
        },
        {
          "internalType": "uint256",
          "name": "electionId",
          "type": "uint256"
        }
      ],
      "name": "addParty",
      "outputs": [],
      "stateMutability": "nonpayable",
      "type": "function"
    },
    {
      "inputs": [
        {
          "internalType": "uint256",
          "name": "electionId",
          "type": "uint256"
        },
        {
          "internalType": "uint256",
          "name": "partyId",
          "type": "uint256"
        },
        {
          "internalType": "uint256",
          "name": "voter",
          "type": "uint256"
        },
        {
          "internalType": "string",
          "name": "characterName",
          "type": "string"
        }
      ],
      "name": "castVote",
      "outputs": [],
      "stateMutability": "nonpayable",
      "type": "function"
    },
    {
      "inputs": [
        {
          "internalType": "uint256",
          "name": "electionId",
          "type": "uint256"
        },
        {
          "internalType": "string",
          "name": "title",
          "type": "string"
        }
      ],
      "name": "createElection",
      "outputs": [],
      "stateMutability": "nonpayable",
      "type": "function"
    },
    {
      "inputs": [
        {
          "internalType": "uint256",
          "name": "",
          "type": "uint256"
        }
      ],
      "name": "elections",
      "outputs": [
        {
          "internalType": "string",
          "name": "title",
          "type": "string"
        }
      ],
      "stateMutability": "view",
      "type": "function"
    },
    {
      "inputs": [
        {
          "internalType": "uint256",
          "name": "partyId",
          "type": "uint256"
        }
      ],
      "name": "getParty",
      "outputs": [
        {
          "internalType": "string",
          "name": "name",
          "type": "string"
        },
        {
          "internalType": "uint256",
          "name": "electionId",
          "type": "uint256"
        },
        {
          "internalType": "string",
          "name": "electionTitle",
          "type": "string"
        },
        {
          "internalType": "uint256",
          "name": "voteCount",
          "type": "uint256"
        }
      ],
      "stateMutability": "view",
      "type": "function"
    },
    {
      "inputs": [
        {
          "internalType": "uint256",
          "name": "electionId",
          "type": "uint256"
        }
      ],
      "name": "getPartyCount",
      "outputs": [
        {
          "internalType": "uint256",
          "name": "",
          "type": "uint256"
        }
      ],
      "stateMutability": "view",
      "type": "function"
    },
    {
      "inputs": [
        {
          "internalType": "uint256",
          "name": "electionId",
          "type": "uint256"
        }
      ],
      "name": "getPartyIdsForElection",
      "outputs": [
        {
          "internalType": "uint256[]",
          "name": "",
          "type": "uint256[]"
        }
      ],
      "stateMutability": "view",
      "type": "function"
    },
    {
      "inputs": [
        {
          "internalType": "uint256",
          "name": "partyId",
          "type": "uint256"
        }
      ],
      "name": "getPartyVoteCount",
      "outputs": [
        {
          "internalType": "uint256",
          "name": "",
          "type": "uint256"
        }
      ],
      "stateMutability": "view",
      "type": "function"
    },
    {
      "inputs": [
        {
          "internalType": "uint256",
          "name": "electionId",
          "type": "uint256"
        }
      ],
      "name": "getVotes",
      "outputs": [
        {
          "components": [
            {
              "internalType": "uint256",
              "name": "voter",
              "type": "uint256"
            },
            {
              "internalType": "uint256",
              "name": "electionId",
              "type": "uint256"
            },
            {
              "internalType": "string",
              "name": "electionTitle",
              "type": "string"
            },
            {
              "internalType": "uint256",
              "name": "partyId",
              "type": "uint256"
            },
            {
              "internalType": "string",
              "name": "partyName",
              "type": "string"
            },
            {
              "internalType": "string",
              "name": "characterName",
              "type": "string"
            }
          ],
          "internalType": "struct VotingSystem.Vote[]",
          "name": "",
          "type": "tuple[]"
        }
      ],
      "stateMutability": "view",
      "type": "function"
    },
    {
      "inputs": [
        {
          "internalType": "uint256",
          "name": "electionId",
          "type": "uint256"
        },
        {
          "internalType": "uint256",
          "name": "partyId",
          "type": "uint256"
        }
      ],
      "name": "getVotesForParty",
      "outputs": [
        {
          "components": [
            {
              "internalType": "uint256",
              "name": "voter",
              "type": "uint256"
            },
            {
              "internalType": "uint256",
              "name": "electionId",
              "type": "uint256"
            },
            {
              "internalType": "string",
              "name": "electionTitle",
              "type": "string"
            },
            {
              "internalType": "uint256",
              "name": "partyId",
              "type": "uint256"
            },
            {
              "internalType": "string",
              "name": "partyName",
              "type": "string"
            },
            {
              "internalType": "string",
              "name": "characterName",
              "type": "string"
            }
          ],
          "internalType": "struct VotingSystem.Vote[]",
          "name": "",
          "type": "tuple[]"
        }
      ],
      "stateMutability": "view",
      "type": "function"
    },
    {
      "inputs": [
        {
          "internalType": "uint256",
          "name": "",
          "type": "uint256"
        }
      ],
      "name": "parties",
      "outputs": [
        {
          "internalType": "string",
          "name": "name",
          "type": "string"
        },
        {
          "internalType": "uint256",
          "name": "electionId",
          "type": "uint256"
        },
        {
          "internalType": "string",
          "name": "electionTitle",
          "type": "string"
        },
        {
          "internalType": "uint256",
          "name": "voteCount",
          "type": "uint256"
        }
      ],
      "stateMutability": "view",
      "type": "function"
    },
    {
      "inputs": [
        {
          "internalType": "uint256",
          "name": "",
          "type": "uint256"
        },
        {
          "internalType": "uint256",
          "name": "",
          "type": "uint256"
        }
      ],
      "name": "votes",
      "outputs": [
        {
          "internalType": "uint256",
          "name": "voter",
          "type": "uint256"
        },
        {
          "internalType": "uint256",
          "name": "electionId",
          "type": "uint256"
        },
        {
          "internalType": "string",
          "name": "electionTitle",
          "type": "string"
        },
        {
          "internalType": "uint256",
          "name": "partyId",
          "type": "uint256"
        },
        {
          "internalType": "string",
          "name": "partyName",
          "type": "string"
        },
        {
          "internalType": "string",
          "name": "characterName",
          "type": "string"
        }
      ],
      "stateMutability": "view",
      "type": "function"
    }
  ],
  "bytecode": "0x6080604052348015600f57600080fd5b506124518061001f6000396000f3fe608060405234801561001057600080fd5b50600436106100b45760003560e01c8063947582181161007157806394758218146101b4578063b6c8ecb2146101e7578063c3069bb214610203578063c6e36a3214610233578063df8ecf5414610268578063ff98109914610298576100b4565b8063150988c3146100b95780635e6fef01146100e957806370651a1814610119578063748060971461014c5780637da09d941461017c5780638779aaf214610198575b600080fd5b6100d360048036038101906100ce91906115e0565b6102c8565b6040516100e0919061161c565b60405180910390f35b61010360048036038101906100fe91906115e0565b6102ea565b60405161011091906116c7565b60405180910390f35b610133600480360381019061012e91906115e0565b610390565b60405161014394939291906116e9565b60405180910390f35b6101666004803603810190610161919061173c565b6104d0565b604051610173919061192e565b60405180910390f35b61019660048036038101906101919190611a85565b610852565b005b6101b260048036038101906101ad9190611ae1565b610915565b005b6101ce60048036038101906101c991906115e0565b610cd6565b6040516101de94939291906116e9565b60405180910390f35b61020160048036038101906101fc9190611b64565b610e2e565b005b61021d600480360381019061021891906115e0565b61109c565b60405161022a9190611c82565b60405180910390f35b61024d6004803603810190610248919061173c565b611109565b60405161025f96959493929190611ca4565b60405180910390f35b610282600480360381019061027d91906115e0565b6112fa565b60405161028f919061161c565b60405180910390f35b6102b260048036038101906102ad91906115e0565b61131a565b6040516102bf919061192e565b60405180910390f35b6000806000838152602001908152602001600020600101805490509050919050565b600060205280600052604060002060009150905080600001805461030d90611d49565b80601f016020809104026020016040519081016040528092919081815260200182805461033990611d49565b80156103865780601f1061035b57610100808354040283529160200191610386565b820191906000526020600020905b81548152906001019060200180831161036957829003601f168201915b5050505050905081565b60016020528060005260406000206000915090508060000180546103b390611d49565b80601f01602080910402602001604051908101604052809291908181526020018280546103df90611d49565b801561042c5780601f106104015761010080835404028352916020019161042c565b820191906000526020600020905b81548152906001019060200180831161040f57829003601f168201915b50505050509080600101549080600201805461044790611d49565b80601f016020809104026020016040519081016040528092919081815260200182805461047390611d49565b80156104c05780601f10610495576101008083540402835291602001916104c0565b820191906000526020600020905b8154815290600101906020018083116104a357829003601f168201915b5050505050908060030154905084565b6060600060026000858152602001908152602001600020805490509050600080600090505b82811015610556578460026000888152602001908152602001600020828154811061052357610522611d7a565b5b9060005260206000209060060201600301540361054957818061054590611dd8565b9250505b80806001019150506104f5565b5060008167ffffffffffffffff8111156105735761057261195a565b5b6040519080825280602002602001820160405280156105ac57816020015b610599611560565b8152602001906001900390816105915790505b5090506000805b848110156108445786600260008a815260200190815260200160002082815481106105e1576105e0611d7a565b5b906000526020600020906006020160030154036108375760026000898152602001908152602001600020818154811061061d5761061c611d7a565b5b90600052602060002090600602016040518060c0016040529081600082015481526020016001820154815260200160028201805461065a90611d49565b80601f016020809104026020016040519081016040528092919081815260200182805461068690611d49565b80156106d35780601f106106a8576101008083540402835291602001916106d3565b820191906000526020600020905b8154815290600101906020018083116106b657829003601f168201915b50505050508152602001600382015481526020016004820180546106f690611d49565b80601f016020809104026020016040519081016040528092919081815260200182805461072290611d49565b801561076f5780601f106107445761010080835404028352916020019161076f565b820191906000526020600020905b81548152906001019060200180831161075257829003601f168201915b5050505050815260200160058201805461078890611d49565b80601f01602080910402602001604051908101604052809291908181526020018280546107b490611d49565b80156108015780601f106107d657610100808354040283529160200191610801565b820191906000526020600020905b8154815290600101906020018083116107e457829003601f168201915b50505050508152505083838151811061081d5761081c611d7a565b5b6020026020010181905250818061083390611dd8565b9250505b80806001019150506105b3565b508194505050505092915050565b6000806000848152602001908152602001600020600001805461087490611d49565b9050146108b6576040517f08c379a00000000000000000000000000000000000000000000000000000000081526004016108ad90611e6c565b60405180910390fd5b8060008084815260200190815260200160002060000190816108d89190612038565b50817f52be7c4e77b4de76b7607d621492061fe13b58597e72dfb5e51ab8f6187ed1418260405161090991906116c7565b60405180910390a25050565b6000806000868152602001908152602001600020600001805461093790611d49565b905011610979576040517f08c379a000000000000000000000000000000000000000000000000000000000815260040161097090612156565b60405180910390fd5b600060016000858152602001908152602001600020600001805461099c90611d49565b9050116109de576040517f08c379a00000000000000000000000000000000000000000000000000000000081526004016109d5906121c2565b60405180910390fd5b83600160008581526020019081526020016000206001015414610a36576040517f08c379a0000000000000000000000000000000000000000000000000000000008152600401610a2d90612254565b60405180910390fd5b60018060008581526020019081526020016000206003016000828254610a5c9190612274565b92505081905550600260008581526020019081526020016000206040518060c001604052808481526020018681526020016000808881526020019081526020016000206000018054610aad90611d49565b80601f0160208091040260200160405190810160405280929190818152602001828054610ad990611d49565b8015610b265780601f10610afb57610100808354040283529160200191610b26565b820191906000526020600020905b815481529060010190602001808311610b0957829003601f168201915b50505050508152602001858152602001600160008781526020019081526020016000206000018054610b5790611d49565b80601f0160208091040260200160405190810160405280929190818152602001828054610b8390611d49565b8015610bd05780601f10610ba557610100808354040283529160200191610bd0565b820191906000526020600020905b815481529060010190602001808311610bb357829003601f168201915b5050505050815260200183815250908060018154018082558091505060019003906000526020600020906006020160009091909190915060008201518160000155602082015181600101556040820151816002019081610c309190612038565b50606082015181600301556080820151816004019081610c509190612038565b5060a0820151816005019081610c669190612038565b5050508183857f8e97333bf6f8748302e7000e342675271d1b6ed116a570e54379109db1986b476000808981526020019081526020016000206000016001600089815260200190815260200160002060000186604051610cc89392919061232c565b60405180910390a450505050565b606060006060600080600160008781526020019081526020016000209050806000018160010154826002018360030154838054610d1290611d49565b80601f0160208091040260200160405190810160405280929190818152602001828054610d3e90611d49565b8015610d8b5780601f10610d6057610100808354040283529160200191610d8b565b820191906000526020600020905b815481529060010190602001808311610d6e57829003601f168201915b50505050509350818054610d9e90611d49565b80601f0160208091040260200160405190810160405280929190818152602001828054610dca90611d49565b8015610e175780601f10610dec57610100808354040283529160200191610e17565b820191906000526020600020905b815481529060010190602001808311610dfa57829003601f168201915b505050505091509450945094509450509193509193565b6000600160008581526020019081526020016000206000018054610e5190611d49565b905014610e93576040517f08c379a0000000000000000000000000000000000000000000000000000000008152600401610e8a906123c4565b60405180910390fd5b60008060008381526020019081526020016000206000018054610eb590611d49565b905011610ef7576040517f08c379a0000000000000000000000000000000000000000000000000000000008152600401610eee90612156565b60405180910390fd5b60405180608001604052808381526020018281526020016000808481526020019081526020016000206000018054610f2e90611d49565b80601f0160208091040260200160405190810160405280929190818152602001828054610f5a90611d49565b8015610fa75780601f10610f7c57610100808354040283529160200191610fa7565b820191906000526020600020905b815481529060010190602001808311610f8a57829003601f168201915b505050505081526020016000815250600160008581526020019081526020016000206000820151816000019081610fde9190612038565b50602082015181600101556040820151816002019081610ffe9190612038565b506060820151816003015590505060008082815260200190815260200160002060010183908060018154018082558091505060019003906000526020600020016000909190919091505582817fcae1857fb978eeb01d5b4733660d52ca2c8d8e2ce92e75c6c56cae86d097c3018460008086815260200190815260200160002060000160405161108f9291906123e4565b60405180910390a3505050565b60606000808381526020019081526020016000206001018054806020026020016040519081016040528092919081815260200182805480156110fd57602002820191906000526020600020905b8154815260200190600101908083116110e9575b50505050509050919050565b6002602052816000526040600020818154811061112557600080fd5b90600052602060002090600602016000915091505080600001549080600101549080600201805461115590611d49565b80601f016020809104026020016040519081016040528092919081815260200182805461118190611d49565b80156111ce5780601f106111a3576101008083540402835291602001916111ce565b820191906000526020600020905b8154815290600101906020018083116111b157829003601f168201915b5050505050908060030154908060040180546111e990611d49565b80601f016020809104026020016040519081016040528092919081815260200182805461121590611d49565b80156112625780601f1061123757610100808354040283529160200191611262565b820191906000526020600020905b81548152906001019060200180831161124557829003601f168201915b50505050509080600501805461127790611d49565b80601f01602080910402602001604051908101604052809291908181526020018280546112a390611d49565b80156112f05780601f106112c5576101008083540402835291602001916112f0565b820191906000526020600020905b8154815290600101906020018083116112d357829003601f168201915b5050505050905086565b600060016000838152602001908152602001600020600301549050919050565b606060026000838152602001908152602001600020805480602002602001604051908101604052809291908181526020016000905b8282101561155557838290600052602060002090600602016040518060c0016040529081600082015481526020016001820154815260200160028201805461139690611d49565b80601f01602080910402602001604051908101604052809291908181526020018280546113c290611d49565b801561140f5780601f106113e45761010080835404028352916020019161140f565b820191906000526020600020905b8154815290600101906020018083116113f257829003601f168201915b505050505081526020016003820154815260200160048201805461143290611d49565b80601f016020809104026020016040519081016040528092919081815260200182805461145e90611d49565b80156114ab5780601f10611480576101008083540402835291602001916114ab565b820191906000526020600020905b81548152906001019060200180831161148e57829003601f168201915b505050505081526020016005820180546114c490611d49565b80601f01602080910402602001604051908101604052809291908181526020018280546114f090611d49565b801561153d5780601f106115125761010080835404028352916020019161153d565b820191906000526020600020905b81548152906001019060200180831161152057829003601f168201915b5050505050815250508152602001906001019061134f565b505050509050919050565b6040518060c001604052806000815260200160008152602001606081526020016000815260200160608152602001606081525090565b6000604051905090565b600080fd5b600080fd5b6000819050919050565b6115bd816115aa565b81146115c857600080fd5b50565b6000813590506115da816115b4565b92915050565b6000602082840312156115f6576115f56115a0565b5b6000611604848285016115cb565b91505092915050565b611616816115aa565b82525050565b6000602082019050611631600083018461160d565b92915050565b600081519050919050565b600082825260208201905092915050565b60005b83811015611671578082015181840152602081019050611656565b60008484015250505050565b6000601f19601f8301169050919050565b600061169982611637565b6116a38185611642565b93506116b3818560208601611653565b6116bc8161167d565b840191505092915050565b600060208201905081810360008301526116e1818461168e565b905092915050565b60006080820190508181036000830152611703818761168e565b9050611712602083018661160d565b8181036040830152611724818561168e565b9050611733606083018461160d565b95945050505050565b60008060408385031215611753576117526115a0565b5b6000611761858286016115cb565b9250506020611772858286016115cb565b9150509250929050565b600081519050919050565b600082825260208201905092915050565b6000819050602082019050919050565b6117b1816115aa565b82525050565b600082825260208201905092915050565b60006117d382611637565b6117dd81856117b7565b93506117ed818560208601611653565b6117f68161167d565b840191505092915050565b600060c08301600083015161181960008601826117a8565b50602083015161182c60208601826117a8565b506040830151848203604086015261184482826117c8565b915050606083015161185960608601826117a8565b506080830151848203608086015261187182826117c8565b91505060a083015184820360a086015261188b82826117c8565b9150508091505092915050565b60006118a48383611801565b905092915050565b6000602082019050919050565b60006118c48261177c565b6118ce8185611787565b9350836020820285016118e085611798565b8060005b8581101561191c57848403895281516118fd8582611898565b9450611908836118ac565b925060208a019950506001810190506118e4565b50829750879550505050505092915050565b6000602082019050818103600083015261194881846118b9565b905092915050565b600080fd5b600080fd5b7f4e487b7100000000000000000000000000000000000000000000000000000000600052604160045260246000fd5b6119928261167d565b810181811067ffffffffffffffff821117156119b1576119b061195a565b5b80604052505050565b60006119c4611596565b90506119d08282611989565b919050565b600067ffffffffffffffff8211156119f0576119ef61195a565b5b6119f98261167d565b9050602081019050919050565b82818337600083830152505050565b6000611a28611a23846119d5565b6119ba565b905082815260208101848484011115611a4457611a43611955565b5b611a4f848285611a06565b509392505050565b600082601f830112611a6c57611a6b611950565b5b8135611a7c848260208601611a15565b91505092915050565b60008060408385031215611a9c57611a9b6115a0565b5b6000611aaa858286016115cb565b925050602083013567ffffffffffffffff811115611acb57611aca6115a5565b5b611ad785828601611a57565b9150509250929050565b60008060008060808587031215611afb57611afa6115a0565b5b6000611b09878288016115cb565b9450506020611b1a878288016115cb565b9350506040611b2b878288016115cb565b925050606085013567ffffffffffffffff811115611b4c57611b4b6115a5565b5b611b5887828801611a57565b91505092959194509250565b600080600060608486031215611b7d57611b7c6115a0565b5b6000611b8b868287016115cb565b935050602084013567ffffffffffffffff811115611bac57611bab6115a5565b5b611bb886828701611a57565b9250506040611bc9868287016115cb565b9150509250925092565b600081519050919050565b600082825260208201905092915050565b6000819050602082019050919050565b6000611c0b83836117a8565b60208301905092915050565b6000602082019050919050565b6000611c2f82611bd3565b611c398185611bde565b9350611c4483611bef565b8060005b83811015611c75578151611c5c8882611bff565b9750611c6783611c17565b925050600181019050611c48565b5085935050505092915050565b60006020820190508181036000830152611c9c8184611c24565b905092915050565b600060c082019050611cb9600083018961160d565b611cc6602083018861160d565b8181036040830152611cd8818761168e565b9050611ce7606083018661160d565b8181036080830152611cf9818561168e565b905081810360a0830152611d0d818461168e565b9050979650505050505050565b7f4e487b7100000000000000000000000000000000000000000000000000000000600052602260045260246000fd5b60006002820490506001821680611d6157607f821691505b602082108103611d7457611d73611d1a565b5b50919050565b7f4e487b7100000000000000000000000000000000000000000000000000000000600052603260045260246000fd5b7f4e487b7100000000000000000000000000000000000000000000000000000000600052601160045260246000fd5b6000611de3826115aa565b91507fffffffffffffffffffffffffffffffffffffffffffffffffffffffffffffffff8203611e1557611e14611da9565b5b600182019050919050565b7f456c656374696f6e20616c726561647920657869737473000000000000000000600082015250565b6000611e56601783611642565b9150611e6182611e20565b602082019050919050565b60006020820190508181036000830152611e8581611e49565b9050919050565b60008190508160005260206000209050919050565b60006020601f8301049050919050565b600082821b905092915050565b600060088302611eee7fffffffffffffffffffffffffffffffffffffffffffffffffffffffffffffffff82611eb1565b611ef88683611eb1565b95508019841693508086168417925050509392505050565b6000819050919050565b6000611f35611f30611f2b846115aa565b611f10565b6115aa565b9050919050565b6000819050919050565b611f4f83611f1a565b611f63611f5b82611f3c565b848454611ebe565b825550505050565b600090565b611f78611f6b565b611f83818484611f46565b505050565b5b81811015611fa757611f9c600082611f70565b600181019050611f89565b5050565b601f821115611fec57611fbd81611e8c565b611fc684611ea1565b81016020851015611fd5578190505b611fe9611fe185611ea1565b830182611f88565b50505b505050565b600082821c905092915050565b600061200f60001984600802611ff1565b1980831691505092915050565b60006120288383611ffe565b9150826002028217905092915050565b61204182611637565b67ffffffffffffffff81111561205a5761205961195a565b5b6120648254611d49565b61206f828285611fab565b600060209050601f8311600181146120a25760008415612090578287015190505b61209a858261201c565b865550612102565b601f1984166120b086611e8c565b60005b828110156120d8578489015182556001820191506020850194506020810190506120b3565b868310156120f557848901516120f1601f891682611ffe565b8355505b6001600288020188555050505b505050505050565b7f456c656374696f6e20646f6573206e6f74206578697374000000000000000000600082015250565b6000612140601783611642565b915061214b8261210a565b602082019050919050565b6000602082019050818103600083015261216f81612133565b9050919050565b7f506172747920646f6573206e6f74206578697374000000000000000000000000600082015250565b60006121ac601483611642565b91506121b782612176565b602082019050919050565b600060208201905081810360008301526121db8161219f565b9050919050565b7f506172747920646f6573206e6f742062656c6f6e6720746f207468697320656c60008201527f656374696f6e0000000000000000000000000000000000000000000000000000602082015250565b600061223e602683611642565b9150612249826121e2565b604082019050919050565b6000602082019050818103600083015261226d81612231565b9050919050565b600061227f826115aa565b915061228a836115aa565b92508282019050808211156122a2576122a1611da9565b5b92915050565b600081546122b581611d49565b6122bf8186611642565b945060018216600081146122da57600181146122f057612323565b60ff198316865281151560200286019350612323565b6122f985611e8c565b60005b8381101561231b578154818901526001820191506020810190506122fc565b808801955050505b50505092915050565b6000606082019050818103600083015261234681866122a8565b9050818103602083015261235a81856122a8565b9050818103604083015261236e818461168e565b9050949350505050565b7f506172747920616c726561647920657869737473000000000000000000000000600082015250565b60006123ae601483611642565b91506123b982612378565b602082019050919050565b600060208201905081810360008301526123dd816123a1565b9050919050565b600060408201905081810360008301526123fe818561168e565b9050818103602083015261241281846122a8565b9050939250505056fea26469706673582212206b4e2986671aae0b2f16e38a463064e19d8dddaa25b88c3c8e6175bdd204ef5564736f6c634300081c0033",
  "linkReferences": {},
  "deployedLinkReferences": {}
}